:0C0000000C944D000C9400000C940000C7
:10000C000C9400000C9400000C9400000C94000064
:10001C000C9400000C9400000C9400000C94000054
:10002C000C9400000C9400000C9400000C94000044
:10003C000C9400000C9400000C9400000C94000034
:10004C000C9400000C9400000C9400000C94000024
:10005C000C9400000C9400000C9400000C94000014
:10006C000C9400000C9400000C9400000C94000004
:10007C000100E80301002D4E414E00494E460000A0
:10008C00040003007C000100900380000000F89441
:10009C00EE27EFBBF1E0F5BFE5BF8DE0A2E0BB279B
:1000AC00ED938A95E9F780E094E0A0E0B1E0ED9360
:1000BC000197E9F7ECE8F0E085919591009761F0F4
:1000CC00A591B59105901590BF01F00105900D9289
:1000DC000197E1F7FB01F0CFE0E0EEBBEFEFEDBFF6
:1000EC00E4E0EEBFC0E0D2E00C947D012C982D989A
:1000FC002E982F9808952C9A2D9A2E9A2F9A08950F
:10010C007BD10436E0E01E0780F47BD1EA0FFB1FA5
:10011C00FF93EF9355D1A3E0B0E0DED1AF91BF9147
:10012C00ED93FC930F5F1F4FECCF57C01A930A93BC
:10013C00DDDF00E010E00315140508F562D167D18E
:10014C00309719F46AD12C9814C0E130A0E0FA076A
:10015C0019F467D12D980DC0E230A0E0FA0719F41C
:10016C0064D12E9806C0E330A0E0FA0729F461D1DF
:10017C002F98A8ECB0E0BAD10F5F1F4FDCCF2DC089
:10018C005CD1B9DFA4EFB1E0B1D1B0DFA4EFB1E045
:10019C00ADD1E4E6F0E03E164F0624F4E1E0F0E0E9
:1001AC003E0E4F1EE52DF62DF2975E2E6F2E089506
:1001BC0023D10330E0E01E0740F49DDFAAEFB0E04E
:1001CC0095D13BD10F5F1F4FF4CFE1E0F0E03E2E15
:1001DC004F2EE8EEF3E05E2E6F2E099119910895E3
:1001EC004DD100E010E020E030E02315340508F09C
:1001FC0041C000E010E0002E012AC9F518990CC08E
:10020C000CD11FD1E0E0F0E024D12BD1E015F105A9
:10021C0011F0CEDF48C02C9819990CC002D111D125
:10022C00E1E0F0E016D11DD1E015F10511F0C0DFD1
:10023C003AC02D981A990CC0F8D003D1E2E0F0E046
:10024C0008D10FD1E015F10511F0B2DF2CC02E98BA
:10025C001B990CC0EED0F5D0E3E0F0E0FAD001D160
:10026C00E015F10511F0A4DF1EC02F98C4CF2F5F4D
:10027C003F4FBBCFE4E6F0E0E217F30799F420E040
:10028C0030E02A30E0E03E0758F430DFA4E6B0E07E
:10029C002DD131DFA4E6B0E029D12F5F3F4FF1CF54
:1002AC0087DF01C06DDFEFD0249608952C9AA4E669
:1002BC00B0E01CD12C98A4E6B0E018D12D9AA4E69D
:1002CC00B0E014D12D98A4E6B0E010D12E9AA4E69B
:1002DC00B0E00CD12E98A4E6B0E008D12F9AA4E699
:1002EC00B0E004D12F98A4E6B0E000D10895E0E886
:1002FC00E0936100E0E0E0936100E1B9E2B9E0EF86
:10030C00E4B9EFE0E5B9E0E0E7B9E8B9EAB9EBB98F
:10031C00E4BDE5BDE6BDE7BDE8BDE0938000E0933C
:10032C008100E0938500E0938400E0938700E093E4
:10033C008600E0938900E0938800E0938B00E093C3
:10034C008A00E093B600E093B000E093B100E09334
:10035C00B200E093B300E093B400E0936E00E0933E
:10036C006F00E0937000E0936900EDBBE0936800D0
:10037C00E093C100E093C800E8E0E093C900E6E038
:10038C00E093CA00E0E0E093CD00E1E8E093CC001C
:10039C00E0E8E0BFE0E0E0937B00E0937F00E093D7
:1003AC007A00ECBDE093BC0064D011F4A9DE7EDFD2
:1003BC00189B02C05ED011F0B9DE12DFF5CFFFCF73
:1003CC00E0919003F09191036091920370919303EB
:1003DC00ADE6BEE486EC91E45FD0EE59F8486F4F81
:1003EC007F4FE0939003F09391036093920370938B
:1003FC009303FB01FF7708951A930A9300E010E032
:10040C000895F801A0E0B2E0EE0FFF1F0895AE0FC3
:10041C00BF1FED91FC91119708952C9AA52DB62D27
:10042C0065C02D9AA52DB62D61C02E9AA52DB62D81
:10043C005DC02F9AA52DB62D59C058DEAAEFB0E09D
:10044C0055C0F901A8ECB2E0EE0FFF1FAE0FBF1FB5
:10045C000895ED93FC9301E010E0A8ECB0E046D0D9
:10046C00F0CF0D901C90F901A0E0B2E0EE0FFF1F51
:10047C00CECFE1E0F0E0E315F40508953A932A932A
:10048C001A930A9308953B812A8119810881089552
:10049C00F195E195F04008957A9F702D6B9F700D4A
:1004AC00F89F700DE99F700D6A9F602D710DFB9F79
:1004BC00600D711DE89F600D711D8827FA9FF02D4E
:1004CC00610D781FEB9FF00D611D781FEA9FE02DE9
:1004DC00F10D681F781F0895E894F7FF02C0D8DF6C
:1004EC006894EA23FB230EF4D3DF0895109639F0B9
:1004FC00A89588E893E10197F1F71197C9F708954A
:00000001FF
