:040000000C943E001E
:100004000C9400000C9400000C9400000C9400006C
:100014000C9400000C9400000C9400000C9400005C
:100024000C9400000C9400000C9400000C9400004C
:100034000C9400000C9400000C9400000C9400003C
:100044000C9400000C9400000C9400000C9400002C
:100054000C9400000C9400000C9400000C9400001C
:100064000C9400000C9400000C9400000C9400000C
:100074000C9400000C940000F894EE27EFBBF1E020
:10008400F5BFE5BF8DE0A2E0BB27ED938A95E9F7C4
:1000940080E094E0A0E0B1E0ED930197E9F7E0E0BF
:1000A400EEBBEFEFEDBFE4E0EEBFC0E0D2E00C94B6
:1000B4005B00E0E8E0936100E0E0E0936100E1B917
:1000C400E2B9E0EFE4B9EFEFE5B9E0E0E7B9E8B9A8
:1000D400EAB9EBB9E4BDE5BDE6BDE7BDE8BDE09333
:1000E4008000E0938100E0938500E0938400E09336
:1000F4008700E0938600E0938900E0938800E09312
:100104008B00E0938A00E093B600E093B000E093A4
:10011400B100E093B200E093B300E093B400E09345
:100124006E00E0936F00E0937000E0936900EDBB14
:10013400E0936800E093C100E093C800E8E0E09336
:10014400C900E6E0E093CA00E0E0E093CD00E1E816
:10015400E093CC00E0E8E0BFE0E0E0937B00E093D4
:100164007F00E0937A00ECBDE093BC002C982D98BE
:100174002E982F98289B2C9828992C9AFBCFFFCF48
:00000001FF
